{
  "contractName": "Extra",
  "abi": [
    {
      "inputs": [
        {
          "internalType": "address[]",
          "name": "_arr",
          "type": "address[]"
        },
        {
          "internalType": "address",
          "name": "_elem",
          "type": "address"
        }
      ],
      "name": "removeArrayElement",
      "outputs": [
        {
          "internalType": "address[]",
          "name": "",
          "type": "address[]"
        }
      ],
      "stateMutability": "pure",
      "type": "function"
    }
  ],
  "bytecode": "0x608060405234801561001057600080fd5b506105d2806100206000396000f3fe608060405234801561001057600080fd5b506004361061002b5760003560e01c80635391bb7414610030575b600080fd5b61004a6004803603810190610045919061037c565b610060565b6040516100579190610496565b60405180910390f35b6060600083519050600060018261007791906104f1565b67ffffffffffffffff8111156100905761008f6101db565b5b6040519080825280602002602001820160405280156100be5781602001602082028036833780820191505090505b5090506000805b838110156101a4578573ffffffffffffffffffffffffffffffffffffffff168782815181106100f7576100f6610525565b5b602002602001015173ffffffffffffffffffffffffffffffffffffffff16146101915786818151811061012d5761012c610525565b5b602002602001015183838151811061014857610147610525565b5b602002602001019073ffffffffffffffffffffffffffffffffffffffff16908173ffffffffffffffffffffffffffffffffffffffff1681525050818061018d90610554565b9250505b808061019c90610554565b9150506100c5565b5081935050505092915050565b6000604051905090565b600080fd5b600080fd5b600080fd5b6000601f19601f8301169050919050565b7f4e487b7100000000000000000000000000000000000000000000000000000000600052604160045260246000fd5b610213826101ca565b810181811067ffffffffffffffff82111715610232576102316101db565b5b80604052505050565b60006102456101b1565b9050610251828261020a565b919050565b600067ffffffffffffffff821115610271576102706101db565b5b602082029050602081019050919050565b600080fd5b600073ffffffffffffffffffffffffffffffffffffffff82169050919050565b60006102b282610287565b9050919050565b6102c2816102a7565b81146102cd57600080fd5b50565b6000813590506102df816102b9565b92915050565b60006102f86102f384610256565b61023b565b9050808382526020820190506020840283018581111561031b5761031a610282565b5b835b81811015610344578061033088826102d0565b84526020840193505060208101905061031d565b5050509392505050565b600082601f830112610363576103626101c5565b5b81356103738482602086016102e5565b91505092915050565b60008060408385031215610393576103926101bb565b5b600083013567ffffffffffffffff8111156103b1576103b06101c0565b5b6103bd8582860161034e565b92505060206103ce858286016102d0565b9150509250929050565b600081519050919050565b600082825260208201905092915050565b6000819050602082019050919050565b61040d816102a7565b82525050565b600061041f8383610404565b60208301905092915050565b6000602082019050919050565b6000610443826103d8565b61044d81856103e3565b9350610458836103f4565b8060005b838110156104895781516104708882610413565b975061047b8361042b565b92505060018101905061045c565b5085935050505092915050565b600060208201905081810360008301526104b08184610438565b905092915050565b6000819050919050565b7f4e487b7100000000000000000000000000000000000000000000000000000000600052601160045260246000fd5b60006104fc826104b8565b9150610507836104b8565b92508282101561051a576105196104c2565b5b828203905092915050565b7f4e487b7100000000000000000000000000000000000000000000000000000000600052603260045260246000fd5b600061055f826104b8565b91507fffffffffffffffffffffffffffffffffffffffffffffffffffffffffffffffff8203610591576105906104c2565b5b60018201905091905056fea264697066735822122054fb950f5f91a95496290097c813bbfee656f9efd28f040c3ef4bb6d19ee866964736f6c634300080d0033",
  "immutableReferences": {},
  "source": "// SPDX-License-Identifier: MIT\npragma solidity ^0.8.13;\ncontract Extra {\n     function removeArrayElement(address[] memory _arr, address _elem) public pure returns (address[] memory) {\n        uint length = _arr.length;\n        address[] memory newArr = new address[](length - 1);\n        uint newIndex = 0;\n\n        for (uint i = 0; i < length; i++) {\n            if (_arr[i] != _elem) {\n                newArr[newIndex] = _arr[i];\n                newIndex++;\n            }\n        }\n\n        return newArr;\n    }\n}",
  "sourcePath": "/Users/sujoynath/Desktop/Programming/Solidity/SUUP-NFT/contracts/Extra.sol",
  "compiler": {
    "name": "solc",
    "version": "0.8.13+commit.abaa5c0e.Emscripten.clang"
  },
  "schemaVersion": "3.4.14",
  "updatedAt": "2023-08-28T18:00:09.850Z",
  "devdoc": {
    "kind": "dev",
    "methods": {},
    "version": 1
  },
  "userdoc": {
    "kind": "user",
    "methods": {},
    "version": 1
  }
}