{
  "contractName": "SUUPNFT",
  "abi": [
    {
      "inputs": [
        {
          "internalType": "string",
          "name": "_name",
          "type": "string"
        },
        {
          "internalType": "string",
          "name": "_symbol",
          "type": "string"
        },
        {
          "internalType": "address",
          "name": "_admin",
          "type": "address"
        }
      ],
      "stateMutability": "nonpayable",
      "type": "constructor"
    },
    {
      "anonymous": false,
      "inputs": [
        {
          "indexed": true,
          "internalType": "address",
          "name": "owner",
          "type": "address"
        },
        {
          "indexed": true,
          "internalType": "address",
          "name": "approved",
          "type": "address"
        },
        {
          "indexed": true,
          "internalType": "uint256",
          "name": "tokenId",
          "type": "uint256"
        }
      ],
      "name": "Approval",
      "type": "event"
    },
    {
      "anonymous": false,
      "inputs": [
        {
          "indexed": true,
          "internalType": "address",
          "name": "owner",
          "type": "address"
        },
        {
          "indexed": true,
          "internalType": "address",
          "name": "operator",
          "type": "address"
        },
        {
          "indexed": false,
          "internalType": "bool",
          "name": "approved",
          "type": "bool"
        }
      ],
      "name": "ApprovalForAll",
      "type": "event"
    },
    {
      "anonymous": false,
      "inputs": [
        {
          "indexed": false,
          "internalType": "uint256",
          "name": "_fromTokenId",
          "type": "uint256"
        },
        {
          "indexed": false,
          "internalType": "uint256",
          "name": "_toTokenId",
          "type": "uint256"
        }
      ],
      "name": "BatchMetadataUpdate",
      "type": "event"
    },
    {
      "anonymous": false,
      "inputs": [
        {
          "indexed": false,
          "internalType": "uint256",
          "name": "_tokenId",
          "type": "uint256"
        }
      ],
      "name": "MetadataUpdate",
      "type": "event"
    },
    {
      "anonymous": false,
      "inputs": [
        {
          "indexed": true,
          "internalType": "address",
          "name": "from",
          "type": "address"
        },
        {
          "indexed": true,
          "internalType": "address",
          "name": "to",
          "type": "address"
        },
        {
          "indexed": true,
          "internalType": "uint256",
          "name": "tokenId",
          "type": "uint256"
        }
      ],
      "name": "Transfer",
      "type": "event"
    },
    {
      "inputs": [],
      "name": "adminCount",
      "outputs": [
        {
          "internalType": "uint16",
          "name": "",
          "type": "uint16"
        }
      ],
      "stateMutability": "view",
      "type": "function"
    },
    {
      "inputs": [
        {
          "internalType": "address",
          "name": "to",
          "type": "address"
        },
        {
          "internalType": "uint256",
          "name": "tokenId",
          "type": "uint256"
        }
      ],
      "name": "approve",
      "outputs": [],
      "stateMutability": "nonpayable",
      "type": "function"
    },
    {
      "inputs": [
        {
          "internalType": "address",
          "name": "owner",
          "type": "address"
        }
      ],
      "name": "balanceOf",
      "outputs": [
        {
          "internalType": "uint256",
          "name": "",
          "type": "uint256"
        }
      ],
      "stateMutability": "view",
      "type": "function"
    },
    {
      "inputs": [
        {
          "internalType": "uint256",
          "name": "tokenId",
          "type": "uint256"
        }
      ],
      "name": "getApproved",
      "outputs": [
        {
          "internalType": "address",
          "name": "",
          "type": "address"
        }
      ],
      "stateMutability": "view",
      "type": "function"
    },
    {
      "inputs": [
        {
          "internalType": "address",
          "name": "owner",
          "type": "address"
        },
        {
          "internalType": "address",
          "name": "operator",
          "type": "address"
        }
      ],
      "name": "isApprovedForAll",
      "outputs": [
        {
          "internalType": "bool",
          "name": "",
          "type": "bool"
        }
      ],
      "stateMutability": "view",
      "type": "function"
    },
    {
      "inputs": [],
      "name": "name",
      "outputs": [
        {
          "internalType": "string",
          "name": "",
          "type": "string"
        }
      ],
      "stateMutability": "view",
      "type": "function"
    },
    {
      "inputs": [
        {
          "internalType": "uint256",
          "name": "tokenId",
          "type": "uint256"
        }
      ],
      "name": "ownerOf",
      "outputs": [
        {
          "internalType": "address",
          "name": "",
          "type": "address"
        }
      ],
      "stateMutability": "view",
      "type": "function"
    },
    {
      "inputs": [
        {
          "internalType": "address[]",
          "name": "_arr",
          "type": "address[]"
        },
        {
          "internalType": "address",
          "name": "_elem",
          "type": "address"
        }
      ],
      "name": "removeArrayElement",
      "outputs": [
        {
          "internalType": "address[]",
          "name": "",
          "type": "address[]"
        }
      ],
      "stateMutability": "pure",
      "type": "function"
    },
    {
      "inputs": [
        {
          "internalType": "address",
          "name": "from",
          "type": "address"
        },
        {
          "internalType": "address",
          "name": "to",
          "type": "address"
        },
        {
          "internalType": "uint256",
          "name": "tokenId",
          "type": "uint256"
        }
      ],
      "name": "safeTransferFrom",
      "outputs": [],
      "stateMutability": "nonpayable",
      "type": "function"
    },
    {
      "inputs": [
        {
          "internalType": "address",
          "name": "from",
          "type": "address"
        },
        {
          "internalType": "address",
          "name": "to",
          "type": "address"
        },
        {
          "internalType": "uint256",
          "name": "tokenId",
          "type": "uint256"
        },
        {
          "internalType": "bytes",
          "name": "data",
          "type": "bytes"
        }
      ],
      "name": "safeTransferFrom",
      "outputs": [],
      "stateMutability": "nonpayable",
      "type": "function"
    },
    {
      "inputs": [
        {
          "internalType": "address",
          "name": "operator",
          "type": "address"
        },
        {
          "internalType": "bool",
          "name": "approved",
          "type": "bool"
        }
      ],
      "name": "setApprovalForAll",
      "outputs": [],
      "stateMutability": "nonpayable",
      "type": "function"
    },
    {
      "inputs": [
        {
          "internalType": "bytes4",
          "name": "interfaceId",
          "type": "bytes4"
        }
      ],
      "name": "supportsInterface",
      "outputs": [
        {
          "internalType": "bool",
          "name": "",
          "type": "bool"
        }
      ],
      "stateMutability": "view",
      "type": "function"
    },
    {
      "inputs": [],
      "name": "symbol",
      "outputs": [
        {
          "internalType": "string",
          "name": "",
          "type": "string"
        }
      ],
      "stateMutability": "view",
      "type": "function"
    },
    {
      "inputs": [
        {
          "internalType": "address",
          "name": "from",
          "type": "address"
        },
        {
          "internalType": "address",
          "name": "to",
          "type": "address"
        },
        {
          "internalType": "uint256",
          "name": "tokenId",
          "type": "uint256"
        }
      ],
      "name": "transferFrom",
      "outputs": [],
      "stateMutability": "nonpayable",
      "type": "function"
    },
    {
      "inputs": [
        {
          "internalType": "address",
          "name": "_account",
          "type": "address"
        }
      ],
      "name": "addAdmin",
      "outputs": [
        {
          "internalType": "bool",
          "name": "",
          "type": "bool"
        }
      ],
      "stateMutability": "nonpayable",
      "type": "function"
    },
    {
      "inputs": [
        {
          "internalType": "address",
          "name": "_account",
          "type": "address"
        }
      ],
      "name": "deleteAdmin",
      "outputs": [
        {
          "internalType": "bool",
          "name": "",
          "type": "bool"
        }
      ],
      "stateMutability": "nonpayable",
      "type": "function"
    },
    {
      "inputs": [],
      "name": "adminLists",
      "outputs": [
        {
          "internalType": "address[]",
          "name": "",
          "type": "address[]"
        }
      ],
      "stateMutability": "view",
      "type": "function"
    },
    {
      "inputs": [],
      "name": "totalSupply",
      "outputs": [
        {
          "internalType": "uint256",
          "name": "",
          "type": "uint256"
        }
      ],
      "stateMutability": "view",
      "type": "function"
    },
    {
      "inputs": [
        {
          "internalType": "address",
          "name": "recipient",
          "type": "address"
        },
        {
          "internalType": "string",
          "name": "uri",
          "type": "string"
        }
      ],
      "name": "mint",
      "outputs": [
        {
          "internalType": "uint256",
          "name": "",
          "type": "uint256"
        }
      ],
      "stateMutability": "nonpayable",
      "type": "function"
    },
    {
      "inputs": [
        {
          "internalType": "uint256",
          "name": "_tokenId",
          "type": "uint256"
        }
      ],
      "name": "tokenURI",
      "outputs": [
        {
          "internalType": "string",
          "name": "",
          "type": "string"
        }
      ],
      "stateMutability": "view",
      "type": "function"
    },
    {
      "inputs": [
        {
          "internalType": "address payable",
          "name": "to",
          "type": "address"
        },
        {
          "internalType": "uint256",
          "name": "amountInWei",
          "type": "uint256"
        }
      ],
      "name": "withdrawNative",
      "outputs": [
        {
          "internalType": "bool",
          "name": "",
          "type": "bool"
        }
      ],
      "stateMutability": "nonpayable",
      "type": "function"
    }
  ],
  "bytecode": "0x60806040526001600760006101000a81548160ff021916908360ff1602179055503480156200002d57600080fd5b5060405162003a9638038062003a9683398181016040528101906200005391906200043c565b828281600090805190602001906200006d9291906200018a565b508060019080519060200190620000869291906200018a565b5050506001600860008373ffffffffffffffffffffffffffffffffffffffff1673ffffffffffffffffffffffffffffffffffffffff16815260200190815260200160002060006101000a81548160ff0219169083151502179055506009819080600181540180825580915050600190039060005260206000200160009091909190916101000a81548173ffffffffffffffffffffffffffffffffffffffff021916908373ffffffffffffffffffffffffffffffffffffffff160217905550600a600081819054906101000a900461ffff1680929190620001669062000513565b91906101000a81548161ffff021916908361ffff16021790555050505050620005a6565b828054620001989062000571565b90600052602060002090601f016020900481019282620001bc576000855562000208565b82601f10620001d757805160ff191683800117855562000208565b8280016001018555821562000208579182015b8281111562000207578251825591602001919060010190620001ea565b5b5090506200021791906200021b565b5090565b5b80821115620002365760008160009055506001016200021c565b5090565b6000604051905090565b600080fd5b600080fd5b600080fd5b600080fd5b6000601f19601f8301169050919050565b7f4e487b7100000000000000000000000000000000000000000000000000000000600052604160045260246000fd5b620002a38262000258565b810181811067ffffffffffffffff82111715620002c557620002c462000269565b5b80604052505050565b6000620002da6200023a565b9050620002e8828262000298565b919050565b600067ffffffffffffffff8211156200030b576200030a62000269565b5b620003168262000258565b9050602081019050919050565b60005b838110156200034357808201518184015260208101905062000326565b8381111562000353576000848401525b50505050565b6000620003706200036a84620002ed565b620002ce565b9050828152602081018484840111156200038f576200038e62000253565b5b6200039c84828562000323565b509392505050565b600082601f830112620003bc57620003bb6200024e565b5b8151620003ce84826020860162000359565b91505092915050565b600073ffffffffffffffffffffffffffffffffffffffff82169050919050565b60006200040482620003d7565b9050919050565b6200041681620003f7565b81146200042257600080fd5b50565b60008151905062000436816200040b565b92915050565b60008060006060848603121562000458576200045762000244565b5b600084015167ffffffffffffffff81111562000479576200047862000249565b5b6200048786828701620003a4565b935050602084015167ffffffffffffffff811115620004ab57620004aa62000249565b5b620004b986828701620003a4565b9250506040620004cc8682870162000425565b9150509250925092565b7f4e487b7100000000000000000000000000000000000000000000000000000000600052601160045260246000fd5b600061ffff82169050919050565b6000620005208262000505565b915061ffff8203620005375762000536620004d6565b5b600182019050919050565b7f4e487b7100000000000000000000000000000000000000000000000000000000600052602260045260246000fd5b600060028204905060018216806200058a57607f821691505b602082108103620005a0576200059f62000542565b5b50919050565b6134e080620005b66000396000f3fe608060405234801561001057600080fd5b50600436106101375760003560e01c806342842e0e116100b857806395d89b411161007c57806395d89b4114610388578063a22cb465146103a6578063b88d4fde146103c2578063c87b56dd146103de578063d0def5211461040e578063e985e9c51461043e57610137565b806342842e0e146102ac5780635391bb74146102c85780636352211e146102f8578063704802751461032857806370a082311461035857610137565b806318160ddd116100ff57806318160ddd1461020657806323b872dd14610224578063246e6cc11461024057806327e1f7df1461025e5780632b7832b31461028e57610137565b806301ffc9a71461013c57806306fdde031461016c57806307b18bde1461018a578063081812fc146101ba578063095ea7b3146101ea575b600080fd5b610156600480360381019061015191906121a8565b61046e565b60405161016391906121f0565b60405180910390f35b6101746104cf565b60405161018191906122a4565b60405180910390f35b6101a4600480360381019061019f919061235a565b610561565b6040516101b191906121f0565b60405180910390f35b6101d460048036038101906101cf919061239a565b61068a565b6040516101e191906123e8565b60405180910390f35b61020460048036038101906101ff919061242f565b6106d0565b005b61020e6107e7565b60405161021b919061247e565b60405180910390f35b61023e60048036038101906102399190612499565b61088b565b005b6102486108eb565b60405161025591906125aa565b60405180910390f35b610278600480360381019061027391906125cc565b610a0c565b60405161028591906121f0565b60405180910390f35b610296610c33565b6040516102a39190612616565b60405180910390f35b6102c660048036038101906102c19190612499565b610c47565b005b6102e260048036038101906102dd9190612779565b610c67565b6040516102ef91906125aa565b60405180910390f35b610312600480360381019061030d919061239a565b610db8565b60405161031f91906123e8565b60405180910390f35b610342600480360381019061033d91906125cc565b610e3e565b60405161034f91906121f0565b60405180910390f35b610372600480360381019061036d91906125cc565b610fd2565b60405161037f919061247e565b60405180910390f35b610390611089565b60405161039d91906122a4565b60405180910390f35b6103c060048036038101906103bb9190612801565b61111b565b005b6103dc60048036038101906103d791906128f6565b611131565b005b6103f860048036038101906103f3919061239a565b611193565b60405161040591906122a4565b60405180910390f35b61042860048036038101906104239190612a1a565b611280565b604051610435919061247e565b60405180910390f35b61045860048036038101906104539190612a76565b611369565b60405161046591906121f0565b60405180910390f35b6000634906490660e01b7bffffffffffffffffffffffffffffffffffffffffffffffffffffffff1916827bffffffffffffffffffffffffffffffffffffffffffffffffffffffff191614806104c857506104c7826113fd565b5b9050919050565b6060600080546104de90612ae5565b80601f016020809104026020016040519081016040528092919081815260200182805461050a90612ae5565b80156105575780601f1061052c57610100808354040283529160200191610557565b820191906000526020600020905b81548152906001019060200180831161053a57829003601f168201915b5050505050905090565b600060011515600860003373ffffffffffffffffffffffffffffffffffffffff1673ffffffffffffffffffffffffffffffffffffffff16815260200190815260200160002060009054906101000a900460ff161515146105f6576040517f08c379a00000000000000000000000000000000000000000000000000000000081526004016105ed90612b62565b60405180910390fd5b47821115610639576040517f08c379a000000000000000000000000000000000000000000000000000000000815260040161063090612bce565b60405180910390fd5b8273ffffffffffffffffffffffffffffffffffffffff166108fc839081150290604051600060405180830381858888f1935050505015801561067f573d6000803e3d6000fd5b506001905092915050565b6000610695826114df565b6004600083815260200190815260200160002060009054906101000a900473ffffffffffffffffffffffffffffffffffffffff169050919050565b60006106db82610db8565b90508073ffffffffffffffffffffffffffffffffffffffff168373ffffffffffffffffffffffffffffffffffffffff160361074b576040517f08c379a000000000000000000000000000000000000000000000000000000000815260040161074290612c60565b60405180910390fd5b8073ffffffffffffffffffffffffffffffffffffffff1661076a61152a565b73ffffffffffffffffffffffffffffffffffffffff16148061079957506107988161079361152a565b611369565b5b6107d8576040517f08c379a00000000000000000000000000000000000000000000000000000000081526004016107cf90612cf2565b60405180910390fd5b6107e28383611532565b505050565b600060011515600860003373ffffffffffffffffffffffffffffffffffffffff1673ffffffffffffffffffffffffffffffffffffffff16815260200190815260200160002060009054906101000a900460ff1615151461087c576040517f08c379a000000000000000000000000000000000000000000000000000000000815260040161087390612b62565b60405180910390fd5b610886600c6115eb565b905090565b61089c61089661152a565b826115f9565b6108db576040517f08c379a00000000000000000000000000000000000000000000000000000000081526004016108d290612d84565b60405180910390fd5b6108e683838361168e565b505050565b606060011515600860003373ffffffffffffffffffffffffffffffffffffffff1673ffffffffffffffffffffffffffffffffffffffff16815260200190815260200160002060009054906101000a900460ff16151514610980576040517f08c379a000000000000000000000000000000000000000000000000000000000815260040161097790612b62565b60405180910390fd5b6009805480602002602001604051908101604052809291908181526020018280548015610a0257602002820191906000526020600020905b8160009054906101000a900473ffffffffffffffffffffffffffffffffffffffff1673ffffffffffffffffffffffffffffffffffffffff16815260200190600101908083116109b8575b5050505050905090565b600060011515600860003373ffffffffffffffffffffffffffffffffffffffff1673ffffffffffffffffffffffffffffffffffffffff16815260200190815260200160002060009054906101000a900460ff16151514610aa1576040517f08c379a0000000000000000000000000000000000000000000000000000000008152600401610a9890612b62565b60405180910390fd5b3373ffffffffffffffffffffffffffffffffffffffff168273ffffffffffffffffffffffffffffffffffffffff1603610b0f576040517f08c379a0000000000000000000000000000000000000000000000000000000008152600401610b0690612df0565b60405180910390fd5b610b9f6009805480602002602001604051908101604052809291908181526020018280548015610b9457602002820191906000526020600020905b8160009054906101000a900473ffffffffffffffffffffffffffffffffffffffff1673ffffffffffffffffffffffffffffffffffffffff1681526020019060010190808311610b4a575b505050505083610c67565b50600a600081819054906101000a900461ffff1680929190610bc090612e3f565b91906101000a81548161ffff021916908361ffff16021790555050600860008373ffffffffffffffffffffffffffffffffffffffff1673ffffffffffffffffffffffffffffffffffffffff16815260200190815260200160002060006101000a81549060ff021916905560019050919050565b600a60009054906101000a900461ffff1681565b610c6283838360405180602001604052806000815250611131565b505050565b60606000835190506000600182610c7e9190612e68565b67ffffffffffffffff811115610c9757610c96612636565b5b604051908082528060200260200182016040528015610cc55781602001602082028036833780820191505090505b5090506000805b83811015610dab578573ffffffffffffffffffffffffffffffffffffffff16878281518110610cfe57610cfd612e9c565b5b602002602001015173ffffffffffffffffffffffffffffffffffffffff1614610d9857868181518110610d3457610d33612e9c565b5b6020026020010151838381518110610d4f57610d4e612e9c565b5b602002602001019073ffffffffffffffffffffffffffffffffffffffff16908173ffffffffffffffffffffffffffffffffffffffff16815250508180610d9490612ecb565b9250505b8080610da390612ecb565b915050610ccc565b5081935050505092915050565b600080610dc483611987565b9050600073ffffffffffffffffffffffffffffffffffffffff168173ffffffffffffffffffffffffffffffffffffffff1603610e35576040517f08c379a0000000000000000000000000000000000000000000000000000000008152600401610e2c90612f5f565b60405180910390fd5b80915050919050565b600060011515600860003373ffffffffffffffffffffffffffffffffffffffff1673ffffffffffffffffffffffffffffffffffffffff16815260200190815260200160002060009054906101000a900460ff16151514610ed3576040517f08c379a0000000000000000000000000000000000000000000000000000000008152600401610eca90612b62565b60405180910390fd5b6001600860008473ffffffffffffffffffffffffffffffffffffffff1673ffffffffffffffffffffffffffffffffffffffff16815260200190815260200160002060006101000a81548160ff0219169083151502179055506009829080600181540180825580915050600190039060005260206000200160009091909190916101000a81548173ffffffffffffffffffffffffffffffffffffffff021916908373ffffffffffffffffffffffffffffffffffffffff160217905550600a600081819054906101000a900461ffff1680929190610fae90612f7f565b91906101000a81548161ffff021916908361ffff1602179055505060019050919050565b60008073ffffffffffffffffffffffffffffffffffffffff168273ffffffffffffffffffffffffffffffffffffffff1603611042576040517f08c379a00000000000000000000000000000000000000000000000000000000081526004016110399061301b565b60405180910390fd5b600360008373ffffffffffffffffffffffffffffffffffffffff1673ffffffffffffffffffffffffffffffffffffffff168152602001908152602001600020549050919050565b60606001805461109890612ae5565b80601f01602080910402602001604051908101604052809291908181526020018280546110c490612ae5565b80156111115780601f106110e657610100808354040283529160200191611111565b820191906000526020600020905b8154815290600101906020018083116110f457829003601f168201915b5050505050905090565b61112d61112661152a565b83836119c4565b5050565b61114261113c61152a565b836115f9565b611181576040517f08c379a000000000000000000000000000000000000000000000000000000000815260040161117890612d84565b60405180910390fd5b61118d84848484611b30565b50505050565b606061119e82611b8c565b6111dd576040517f08c379a00000000000000000000000000000000000000000000000000000000081526004016111d4906130ad565b60405180910390fd5b600b600083815260200190815260200160002080546111fb90612ae5565b80601f016020809104026020016040519081016040528092919081815260200182805461122790612ae5565b80156112745780601f1061124957610100808354040283529160200191611274565b820191906000526020600020905b81548152906001019060200180831161125757829003601f168201915b50505050509050919050565b600060011515600860003373ffffffffffffffffffffffffffffffffffffffff1673ffffffffffffffffffffffffffffffffffffffff16815260200190815260200160002060009054906101000a900460ff16151514611315576040517f08c379a000000000000000000000000000000000000000000000000000000000815260040161130c90612b62565b60405180910390fd5b61131f600c611bcd565b600061132b600c6115eb565b90506113378482611be3565b82600b6000838152602001908152602001600020908051906020019061135e929190612099565b508091505092915050565b6000600560008473ffffffffffffffffffffffffffffffffffffffff1673ffffffffffffffffffffffffffffffffffffffff16815260200190815260200160002060008373ffffffffffffffffffffffffffffffffffffffff1673ffffffffffffffffffffffffffffffffffffffff16815260200190815260200160002060009054906101000a900460ff16905092915050565b60007f80ac58cd000000000000000000000000000000000000000000000000000000007bffffffffffffffffffffffffffffffffffffffffffffffffffffffff1916827bffffffffffffffffffffffffffffffffffffffffffffffffffffffff191614806114c857507f5b5e139f000000000000000000000000000000000000000000000000000000007bffffffffffffffffffffffffffffffffffffffffffffffffffffffff1916827bffffffffffffffffffffffffffffffffffffffffffffffffffffffff1916145b806114d857506114d782611c01565b5b9050919050565b6114e881611b8c565b611527576040517f08c379a000000000000000000000000000000000000000000000000000000000815260040161151e90612f5f565b60405180910390fd5b50565b600033905090565b816004600083815260200190815260200160002060006101000a81548173ffffffffffffffffffffffffffffffffffffffff021916908373ffffffffffffffffffffffffffffffffffffffff160217905550808273ffffffffffffffffffffffffffffffffffffffff166115a583610db8565b73ffffffffffffffffffffffffffffffffffffffff167f8c5be1e5ebec7d5bd14f71427d1e84f3dd0314c0f7b2291e5b200ac8c7c3b92560405160405180910390a45050565b600081600001549050919050565b60008061160583610db8565b90508073ffffffffffffffffffffffffffffffffffffffff168473ffffffffffffffffffffffffffffffffffffffff16148061164757506116468185611369565b5b8061168557508373ffffffffffffffffffffffffffffffffffffffff1661166d8461068a565b73ffffffffffffffffffffffffffffffffffffffff16145b91505092915050565b8273ffffffffffffffffffffffffffffffffffffffff166116ae82610db8565b73ffffffffffffffffffffffffffffffffffffffff1614611704576040517f08c379a00000000000000000000000000000000000000000000000000000000081526004016116fb9061313f565b60405180910390fd5b600073ffffffffffffffffffffffffffffffffffffffff168273ffffffffffffffffffffffffffffffffffffffff1603611773576040517f08c379a000000000000000000000000000000000000000000000000000000000815260040161176a906131d1565b60405180910390fd5b6117808383836001611c6b565b8273ffffffffffffffffffffffffffffffffffffffff166117a082610db8565b73ffffffffffffffffffffffffffffffffffffffff16146117f6576040517f08c379a00000000000000000000000000000000000000000000000000000000081526004016117ed9061313f565b60405180910390fd5b6004600082815260200190815260200160002060006101000a81549073ffffffffffffffffffffffffffffffffffffffff02191690556001600360008573ffffffffffffffffffffffffffffffffffffffff1673ffffffffffffffffffffffffffffffffffffffff168152602001908152602001600020600082825403925050819055506001600360008473ffffffffffffffffffffffffffffffffffffffff1673ffffffffffffffffffffffffffffffffffffffff16815260200190815260200160002060008282540192505081905550816002600083815260200190815260200160002060006101000a81548173ffffffffffffffffffffffffffffffffffffffff021916908373ffffffffffffffffffffffffffffffffffffffff160217905550808273ffffffffffffffffffffffffffffffffffffffff168473ffffffffffffffffffffffffffffffffffffffff167fddf252ad1be2c89b69c2b068fc378daa952ba7f163c4a11628f55a4df523b3ef60405160405180910390a46119828383836001611c71565b505050565b60006002600083815260200190815260200160002060009054906101000a900473ffffffffffffffffffffffffffffffffffffffff169050919050565b8173ffffffffffffffffffffffffffffffffffffffff168373ffffffffffffffffffffffffffffffffffffffff1603611a32576040517f08c379a0000000000000000000000000000000000000000000000000000000008152600401611a299061323d565b60405180910390fd5b80600560008573ffffffffffffffffffffffffffffffffffffffff1673ffffffffffffffffffffffffffffffffffffffff16815260200190815260200160002060008473ffffffffffffffffffffffffffffffffffffffff1673ffffffffffffffffffffffffffffffffffffffff16815260200190815260200160002060006101000a81548160ff0219169083151502179055508173ffffffffffffffffffffffffffffffffffffffff168373ffffffffffffffffffffffffffffffffffffffff167f17307eab39ab6107e8899845ad3d59bd9653f200f220920489ca2b5937696c3183604051611b2391906121f0565b60405180910390a3505050565b611b3b84848461168e565b611b4784848484611c77565b611b86576040517f08c379a0000000000000000000000000000000000000000000000000000000008152600401611b7d906132cf565b60405180910390fd5b50505050565b60008073ffffffffffffffffffffffffffffffffffffffff16611bae83611987565b73ffffffffffffffffffffffffffffffffffffffff1614159050919050565b6001816000016000828254019250508190555050565b611bfd828260405180602001604052806000815250611dfe565b5050565b60007f01ffc9a7000000000000000000000000000000000000000000000000000000007bffffffffffffffffffffffffffffffffffffffffffffffffffffffff1916827bffffffffffffffffffffffffffffffffffffffffffffffffffffffff1916149050919050565b50505050565b50505050565b6000611c988473ffffffffffffffffffffffffffffffffffffffff16611e59565b15611df1578373ffffffffffffffffffffffffffffffffffffffff1663150b7a02611cc161152a565b8786866040518563ffffffff1660e01b8152600401611ce39493929190613344565b6020604051808303816000875af1925050508015611d1f57506040513d601f19601f82011682018060405250810190611d1c91906133a5565b60015b611da1573d8060008114611d4f576040519150601f19603f3d011682016040523d82523d6000602084013e611d54565b606091505b506000815103611d99576040517f08c379a0000000000000000000000000000000000000000000000000000000008152600401611d90906132cf565b60405180910390fd5b805181602001fd5b63150b7a0260e01b7bffffffffffffffffffffffffffffffffffffffffffffffffffffffff1916817bffffffffffffffffffffffffffffffffffffffffffffffffffffffff191614915050611df6565b600190505b949350505050565b611e088383611e7c565b611e156000848484611c77565b611e54576040517f08c379a0000000000000000000000000000000000000000000000000000000008152600401611e4b906132cf565b60405180910390fd5b505050565b6000808273ffffffffffffffffffffffffffffffffffffffff163b119050919050565b600073ffffffffffffffffffffffffffffffffffffffff168273ffffffffffffffffffffffffffffffffffffffff1603611eeb576040517f08c379a0000000000000000000000000000000000000000000000000000000008152600401611ee29061341e565b60405180910390fd5b611ef481611b8c565b15611f34576040517f08c379a0000000000000000000000000000000000000000000000000000000008152600401611f2b9061348a565b60405180910390fd5b611f42600083836001611c6b565b611f4b81611b8c565b15611f8b576040517f08c379a0000000000000000000000000000000000000000000000000000000008152600401611f829061348a565b60405180910390fd5b6001600360008473ffffffffffffffffffffffffffffffffffffffff1673ffffffffffffffffffffffffffffffffffffffff16815260200190815260200160002060008282540192505081905550816002600083815260200190815260200160002060006101000a81548173ffffffffffffffffffffffffffffffffffffffff021916908373ffffffffffffffffffffffffffffffffffffffff160217905550808273ffffffffffffffffffffffffffffffffffffffff16600073ffffffffffffffffffffffffffffffffffffffff167fddf252ad1be2c89b69c2b068fc378daa952ba7f163c4a11628f55a4df523b3ef60405160405180910390a4612095600083836001611c71565b5050565b8280546120a590612ae5565b90600052602060002090601f0160209004810192826120c7576000855561210e565b82601f106120e057805160ff191683800117855561210e565b8280016001018555821561210e579182015b8281111561210d5782518255916020019190600101906120f2565b5b50905061211b919061211f565b5090565b5b80821115612138576000816000905550600101612120565b5090565b6000604051905090565b600080fd5b600080fd5b60007fffffffff0000000000000000000000000000000000000000000000000000000082169050919050565b61218581612150565b811461219057600080fd5b50565b6000813590506121a28161217c565b92915050565b6000602082840312156121be576121bd612146565b5b60006121cc84828501612193565b91505092915050565b60008115159050919050565b6121ea816121d5565b82525050565b600060208201905061220560008301846121e1565b92915050565b600081519050919050565b600082825260208201905092915050565b60005b8381101561224557808201518184015260208101905061222a565b83811115612254576000848401525b50505050565b6000601f19601f8301169050919050565b60006122768261220b565b6122808185612216565b9350612290818560208601612227565b6122998161225a565b840191505092915050565b600060208201905081810360008301526122be818461226b565b905092915050565b600073ffffffffffffffffffffffffffffffffffffffff82169050919050565b60006122f1826122c6565b9050919050565b612301816122e6565b811461230c57600080fd5b50565b60008135905061231e816122f8565b92915050565b6000819050919050565b61233781612324565b811461234257600080fd5b50565b6000813590506123548161232e565b92915050565b6000806040838503121561237157612370612146565b5b600061237f8582860161230f565b925050602061239085828601612345565b9150509250929050565b6000602082840312156123b0576123af612146565b5b60006123be84828501612345565b91505092915050565b60006123d2826122c6565b9050919050565b6123e2816123c7565b82525050565b60006020820190506123fd60008301846123d9565b92915050565b61240c816123c7565b811461241757600080fd5b50565b60008135905061242981612403565b92915050565b6000806040838503121561244657612445612146565b5b60006124548582860161241a565b925050602061246585828601612345565b9150509250929050565b61247881612324565b82525050565b6000602082019050612493600083018461246f565b92915050565b6000806000606084860312156124b2576124b1612146565b5b60006124c08682870161241a565b93505060206124d18682870161241a565b92505060406124e286828701612345565b9150509250925092565b600081519050919050565b600082825260208201905092915050565b6000819050602082019050919050565b612521816123c7565b82525050565b60006125338383612518565b60208301905092915050565b6000602082019050919050565b6000612557826124ec565b61256181856124f7565b935061256c83612508565b8060005b8381101561259d5781516125848882612527565b975061258f8361253f565b925050600181019050612570565b5085935050505092915050565b600060208201905081810360008301526125c4818461254c565b905092915050565b6000602082840312156125e2576125e1612146565b5b60006125f08482850161241a565b91505092915050565b600061ffff82169050919050565b612610816125f9565b82525050565b600060208201905061262b6000830184612607565b92915050565b600080fd5b7f4e487b7100000000000000000000000000000000000000000000000000000000600052604160045260246000fd5b61266e8261225a565b810181811067ffffffffffffffff8211171561268d5761268c612636565b5b80604052505050565b60006126a061213c565b90506126ac8282612665565b919050565b600067ffffffffffffffff8211156126cc576126cb612636565b5b602082029050602081019050919050565b600080fd5b60006126f56126f0846126b1565b612696565b90508083825260208201905060208402830185811115612718576127176126dd565b5b835b81811015612741578061272d888261241a565b84526020840193505060208101905061271a565b5050509392505050565b600082601f8301126127605761275f612631565b5b81356127708482602086016126e2565b91505092915050565b600080604083850312156127905761278f612146565b5b600083013567ffffffffffffffff8111156127ae576127ad61214b565b5b6127ba8582860161274b565b92505060206127cb8582860161241a565b9150509250929050565b6127de816121d5565b81146127e957600080fd5b50565b6000813590506127fb816127d5565b92915050565b6000806040838503121561281857612817612146565b5b60006128268582860161241a565b9250506020612837858286016127ec565b9150509250929050565b600080fd5b600067ffffffffffffffff82111561286157612860612636565b5b61286a8261225a565b9050602081019050919050565b82818337600083830152505050565b600061289961289484612846565b612696565b9050828152602081018484840111156128b5576128b4612841565b5b6128c0848285612877565b509392505050565b600082601f8301126128dd576128dc612631565b5b81356128ed848260208601612886565b91505092915050565b600080600080608085870312156129105761290f612146565b5b600061291e8782880161241a565b945050602061292f8782880161241a565b935050604061294087828801612345565b925050606085013567ffffffffffffffff8111156129615761296061214b565b5b61296d878288016128c8565b91505092959194509250565b600067ffffffffffffffff82111561299457612993612636565b5b61299d8261225a565b9050602081019050919050565b60006129bd6129b884612979565b612696565b9050828152602081018484840111156129d9576129d8612841565b5b6129e4848285612877565b509392505050565b600082601f830112612a0157612a00612631565b5b8135612a118482602086016129aa565b91505092915050565b60008060408385031215612a3157612a30612146565b5b6000612a3f8582860161241a565b925050602083013567ffffffffffffffff811115612a6057612a5f61214b565b5b612a6c858286016129ec565b9150509250929050565b60008060408385031215612a8d57612a8c612146565b5b6000612a9b8582860161241a565b9250506020612aac8582860161241a565b9150509250929050565b7f4e487b7100000000000000000000000000000000000000000000000000000000600052602260045260246000fd5b60006002820490506001821680612afd57607f821691505b602082108103612b1057612b0f612ab6565b5b50919050565b7f556e617574686f72697a65642072657175657374000000000000000000000000600082015250565b6000612b4c601483612216565b9150612b5782612b16565b602082019050919050565b60006020820190508181036000830152612b7b81612b3f565b9050919050565b7f4e6f7420656e6f7567682066756e642100000000000000000000000000000000600082015250565b6000612bb8601083612216565b9150612bc382612b82565b602082019050919050565b60006020820190508181036000830152612be781612bab565b9050919050565b7f4552433732313a20617070726f76616c20746f2063757272656e74206f776e6560008201527f7200000000000000000000000000000000000000000000000000000000000000602082015250565b6000612c4a602183612216565b9150612c5582612bee565b604082019050919050565b60006020820190508181036000830152612c7981612c3d565b9050919050565b7f4552433732313a20617070726f76652063616c6c6572206973206e6f7420746f60008201527f6b656e206f776e6572206f7220617070726f76656420666f7220616c6c000000602082015250565b6000612cdc603d83612216565b9150612ce782612c80565b604082019050919050565b60006020820190508181036000830152612d0b81612ccf565b9050919050565b7f4552433732313a2063616c6c6572206973206e6f7420746f6b656e206f776e6560008201527f72206f7220617070726f76656400000000000000000000000000000000000000602082015250565b6000612d6e602d83612216565b9150612d7982612d12565b604082019050919050565b60006020820190508181036000830152612d9d81612d61565b9050919050565b7f596f752063616e206e6f742064656c65746520796f7572206163636f756e7400600082015250565b6000612dda601f83612216565b9150612de582612da4565b602082019050919050565b60006020820190508181036000830152612e0981612dcd565b9050919050565b7f4e487b7100000000000000000000000000000000000000000000000000000000600052601160045260246000fd5b6000612e4a826125f9565b915060008203612e5d57612e5c612e10565b5b600182039050919050565b6000612e7382612324565b9150612e7e83612324565b925082821015612e9157612e90612e10565b5b828203905092915050565b7f4e487b7100000000000000000000000000000000000000000000000000000000600052603260045260246000fd5b6000612ed682612324565b91507fffffffffffffffffffffffffffffffffffffffffffffffffffffffffffffffff8203612f0857612f07612e10565b5b600182019050919050565b7f4552433732313a20696e76616c696420746f6b656e2049440000000000000000600082015250565b6000612f49601883612216565b9150612f5482612f13565b602082019050919050565b60006020820190508181036000830152612f7881612f3c565b9050919050565b6000612f8a826125f9565b915061ffff8203612f9e57612f9d612e10565b5b600182019050919050565b7f4552433732313a2061646472657373207a65726f206973206e6f74206120766160008201527f6c6964206f776e65720000000000000000000000000000000000000000000000602082015250565b6000613005602983612216565b915061301082612fa9565b604082019050919050565b6000602082019050818103600083015261303481612ff8565b9050919050565b7f4552433732314d657461646174613a2055524920717565727920666f72206e6f60008201527f6e6578697374656e7420746f6b656e0000000000000000000000000000000000602082015250565b6000613097602f83612216565b91506130a28261303b565b604082019050919050565b600060208201905081810360008301526130c68161308a565b9050919050565b7f4552433732313a207472616e736665722066726f6d20696e636f72726563742060008201527f6f776e6572000000000000000000000000000000000000000000000000000000602082015250565b6000613129602583612216565b9150613134826130cd565b604082019050919050565b600060208201905081810360008301526131588161311c565b9050919050565b7f4552433732313a207472616e7366657220746f20746865207a65726f2061646460008201527f7265737300000000000000000000000000000000000000000000000000000000602082015250565b60006131bb602483612216565b91506131c68261315f565b604082019050919050565b600060208201905081810360008301526131ea816131ae565b9050919050565b7f4552433732313a20617070726f766520746f2063616c6c657200000000000000600082015250565b6000613227601983612216565b9150613232826131f1565b602082019050919050565b600060208201905081810360008301526132568161321a565b9050919050565b7f4552433732313a207472616e7366657220746f206e6f6e20455243373231526560008201527f63656976657220696d706c656d656e7465720000000000000000000000000000602082015250565b60006132b9603283612216565b91506132c48261325d565b604082019050919050565b600060208201905081810360008301526132e8816132ac565b9050919050565b600081519050919050565b600082825260208201905092915050565b6000613316826132ef565b61332081856132fa565b9350613330818560208601612227565b6133398161225a565b840191505092915050565b600060808201905061335960008301876123d9565b61336660208301866123d9565b613373604083018561246f565b8181036060830152613385818461330b565b905095945050505050565b60008151905061339f8161217c565b92915050565b6000602082840312156133bb576133ba612146565b5b60006133c984828501613390565b91505092915050565b7f4552433732313a206d696e7420746f20746865207a65726f2061646472657373600082015250565b6000613408602083612216565b9150613413826133d2565b602082019050919050565b60006020820190508181036000830152613437816133fb565b9050919050565b7f4552433732313a20746f6b656e20616c7265616479206d696e74656400000000600082015250565b6000613474601c83612216565b915061347f8261343e565b602082019050919050565b600060208201905081810360008301526134a381613467565b905091905056fea2646970667358221220704acf6a4f771a68cec995f85d4803880ba9a2d9878554fb6b41ddcf3016ed8d64736f6c634300080d0033",
  "immutableReferences": {},
  "source": "// SPDX-License-Identifier: MIT\npragma solidity ^0.8.13;\n\nimport \"@openzeppelin/contracts/token/ERC721/extensions/ERC721URIStorage.sol\";\nimport \"@openzeppelin/contracts/utils/Counters.sol\";\nimport \"./Extra.sol\";\n\ncontract SUUPNFT is ERC721URIStorage, Extra {\n    uint8 private tokenStartId = 1;\n    mapping (address => bool) private admins;\n    address[] private allAdmins;\n    uint16 public adminCount;\n\n    mapping(uint256 => string) private _tokenURIs;\n\n    using Counters for Counters.Counter;\n    Counters.Counter private _tokenIds;\n\n    constructor(string memory _name, string memory _symbol, address _admin) ERC721(_name, _symbol) {\n        admins[_admin] = true;\n        allAdmins.push(_admin);\n        adminCount++;\n    }\n\n    function addAdmin(address _account) external onlyAdmin returns(bool) {\n        admins[_account] = true;\n        allAdmins.push(_account);\n        adminCount++;\n        return true;\n    }\n\n    function deleteAdmin(address _account) external onlyAdmin returns(bool) {\n        require(_account != msg.sender, \"You can not delete your account\");\n        removeArrayElement(allAdmins, _account);\n        adminCount --;\n        delete admins[_account];\n        return true;\n    }\n\n    function adminLists() public view onlyAdmin returns (address[] memory) {\n        return allAdmins;\n    }\n\n    function totalSupply() external view onlyAdmin returns(uint256) {\n        return _tokenIds.current();\n    }\n\n    function mint(address recipient, string memory uri) public onlyAdmin returns(uint256) {\n        _tokenIds.increment();\n        uint256 newItemId = _tokenIds.current();\n        _safeMint(recipient, newItemId);\n        _tokenURIs[newItemId] = uri;\n        return newItemId;\n    }\n\n    function tokenURI(uint256 _tokenId) public view virtual override returns(string memory) {\n        require(_exists(_tokenId), \"ERC721Metadata: URI query for nonexistent token\");\n        return _tokenURIs[_tokenId];\n    }\n\n    function withdrawNative(address payable to, uint256 amountInWei) onlyAdmin public returns (bool) {\n        require(amountInWei <= address(this).balance, \"Not enough fund!\");\n        to.transfer(amountInWei);\n        return true;\n    }\n\n    modifier onlyAdmin(){\n        require(admins[msg.sender] == true , \"Unauthorized request\");\n        _;\n    }\n}\n",
  "sourcePath": "/Users/sujoynath/Desktop/Programming/Solidity/SUUP-NFT/contracts/SUUP.sol",
  "compiler": {
    "name": "solc",
    "version": "0.8.13+commit.abaa5c0e.Emscripten.clang"
  },
  "schemaVersion": "3.4.14",
  "updatedAt": "2023-08-28T18:00:09.851Z",
  "devdoc": {
    "kind": "dev",
    "methods": {
      "approve(address,uint256)": {
        "details": "See {IERC721-approve}."
      },
      "balanceOf(address)": {
        "details": "See {IERC721-balanceOf}."
      },
      "getApproved(uint256)": {
        "details": "See {IERC721-getApproved}."
      },
      "isApprovedForAll(address,address)": {
        "details": "See {IERC721-isApprovedForAll}."
      },
      "name()": {
        "details": "See {IERC721Metadata-name}."
      },
      "ownerOf(uint256)": {
        "details": "See {IERC721-ownerOf}."
      },
      "safeTransferFrom(address,address,uint256)": {
        "details": "See {IERC721-safeTransferFrom}."
      },
      "safeTransferFrom(address,address,uint256,bytes)": {
        "details": "See {IERC721-safeTransferFrom}."
      },
      "setApprovalForAll(address,bool)": {
        "details": "See {IERC721-setApprovalForAll}."
      },
      "supportsInterface(bytes4)": {
        "details": "See {IERC165-supportsInterface}"
      },
      "symbol()": {
        "details": "See {IERC721Metadata-symbol}."
      },
      "transferFrom(address,address,uint256)": {
        "details": "See {IERC721-transferFrom}."
      }
    },
    "version": 1
  },
  "userdoc": {
    "kind": "user",
    "methods": {},
    "version": 1
  }
}